:020000040000FA
:100000000C9462000C94E1040C94BA040C948A00E1
:100010000C948A000C948A000C948A000C948A0038
:100020000C948A000C948A000C948A000C948A0028
:100030000C948A000C948A000C948A000C948A0018
:100040000C9470040C948A000C948A000C948A001E
:100050000C948A000C948A000C948A000C948A00F8
:100060000C9408050C948A00000000002300260070
:10007000290000000008000201000003040700003E
:1000800000000000000000000000250028002B00F8
:1000900000000000240027002A00040404040404D3
:1000A0000404020202020202030303030303010227
:1000B00004081020408001020408102001020408F6
:1000C0001020270611241FBECFEFD8E0DEBFCDBF22
:1000D00011E0A0E0B1E0ECE0F2E102C005900D9289
:1000E000A034B107D9F722E0A0E4B1E001C01D922D
:1000F000A034B207E1F710E0C2E6D0E004C02197D7
:10010000FE010E94FE08C136D107C9F70E944D06C4
:100110000C9404090C940000CF93DF9390E0FC0151
:10012000E255FF4F249186569F4FFC01849188230E
:10013000C1F090E0880F991FFC01E057FF4FC59177
:10014000D491FC01EA57FF4FA591B4919FB7F89461
:100150003881822F809583238883EC91E22BEC9366
:100160009FBFDF91CF910895833081F028F48130D3
:1001700099F08230A9F008958730A9F08830C9F04D
:100180008430B1F4809180008F7D03C08091800025
:100190008F7780938000089584B58F7784BD08950C
:1001A00084B58F7DFBCF8091B0008F778093B000B6
:1001B00008958091B0008F7DF9CFCF93DF93282FE2
:1001C00030E0F901EE58FF4F8491F901E255FF4FFD
:1001D000D491F901E656FF4FC491CC23A1F08111CF
:1001E0000E94B400EC2FF0E0EE0FFF1FE859FF4F24
:1001F000A591B491EC91ED2381E090E009F480E0C9
:10020000DF91CF91089580E090E0FACF1F93CF93D4
:10021000DF93282F30E0F901EE58FF4F8491F90168
:10022000E255FF4FD491F901E656FF4FC491CC231C
:10023000A9F0162F81110E94B400EC2FF0E0EE0F10
:10024000FF1FEA57FF4FA591B4918FB7F894EC9137
:10025000111108C0D095DE23DC938FBFDF91CF91C1
:100260001F910895DE2BF8CF3FB7F89480912202BA
:1002700090912302A0912402B091250226B5A89B5B
:1002800005C02F3F19F00196A11DB11D3FBFBA2F28
:10029000A92F982F8827BC01CD01620F711D811DE8
:1002A000911D42E0660F771F881F991F4A95D1F76D
:1002B00008958F929F92AF92BF92CF92DF92EF926A
:1002C000FF924B015C010E9434016B017C010E9492
:1002D00034016C197D098E099F09683E73408105C0
:1002E0009105A8F321E0821A9108A108B10888EECF
:1002F000C80E83E0D81EE11CF11C81149104A104F6
:10030000B10429F7FF90EF90DF90CF90BF90AF90AE
:100310009F908F9008952FB7F89460911E0270916E
:100320001F0280912002909121022FBF089508950D
:10033000089508950895AF92BF92CF92DF92EF9201
:10034000FF920F931F93CF93DF936C017B018B017F
:10035000040F151FEB015E01AE18BF08C017D107CF
:1003600059F06991D601ED91FC910190F081E02D59
:10037000C6010995892B79F7C501DF91CF911F91AE
:100380000F91FF90EF90DF90CF90BF90AF900895C6
:10039000089520918101260F3327331F2132310523
:1003A000ECF42091CA01FC0190E080E0243069F077
:1003B00082E00895A09181012191AC014F595E4FD7
:1003C000A40FB52FB11D2C930196861798F3809139
:1003D0008101680F6093810180E0089581E00895B4
:1003E0001092CA0181E08093C9011092A40161E0DA
:1003F00082E10E94060161E083E10E940601E9EBCF
:10040000F0E080818E7F808380818D7F808388E48F
:100410008093B80085E48093BC000895CF93DF9368
:1004200091E0909360018823B9F0C091B800D09119
:10043000BA008091BC008A7B8093BC0060E082E1BE
:100440000E94060160E083E10E9406010E94F00123
:10045000D093BA00C093B800DF91CF91089508956A
:10046000E091F9018091F801E81730F4F0E0E05CE8
:10047000FE4F808190E008958FEF9FEF0895909157
:10048000F9018091F8012FEF3FEF981748F4E92F19
:10049000F0E0E05CFE4F208130E09F5F9093F90137
:1004A000C90108958091F8019091F901891B990B78
:1004B0000895CF92DF92EF92FF920F931F93CF9305
:1004C000DF937C01CB018A012091D001222389F0A6
:1004D000EB016B01C40ED51ECC15DD0569F06991E9
:1004E000D701ED91FC910190F081E02DC7010995B4
:1004F000F3CF642F0E94C901C801DF91CF911F91F2
:100500000F91FF90EF90DF90CF900895CF93DF93FE
:100510001F92CDB7DEB769832091D0012223F9F075
:100520002091F601203258F021E030E0FC013383C5
:10053000228390E080E00F90DF91CF910895809129
:10054000F701E82FF0E0EF52FE4F998190838F5F23
:100550008093F7018093F60181E090E0ECCF61E0B9
:10056000CE0101960E94C901F7CFCF92DF92EF92A0
:10057000FF920F931F93CF93DF93D62F672FFC012A
:10058000C48181E08093D001C093F1011092F70102
:100590001092F60186E292E00E9486026D2F86E2BA
:1005A00092E00E948602D091F601D13208F092C00A
:1005B0000E9434016B017C018091CA01811165C0E8
:1005C00082E08093CA0181E08093C9018FEF80931C
:1005D000C8011092C701D093C601A1EDB1E0E6EACF
:1005E000F1E080E0D81385C01092A5018091A501AB
:1005F000CC0FC82BC093A5018091A401813009F0D4
:100600007CC01092A4010E9434016B017C01809196
:10061000A5018093BB008091CC019091CD01A09168
:10062000CE01B091CF01892B8A2B8B2B99F00E94A0
:1006300034010091CC011091CD012091CE01309177
:10064000CF016C197D098E099F0906171707280726
:100650003907E0F18091BC0083FDD9CF85EC809310
:10066000BC000E9434016B017C018091CA01823080
:1006700009F445C08091C8018F3F61F18091C801A4
:10068000803241F18091C80125C08091CC019091C8
:10069000CD01A091CE01B091CF01892B8A2B8B2B5C
:1006A00009F48ACF0E9434010091CC011091CD0150
:1006B0002091CE013091CF016C197D098E099F09DF
:1006C000061717072807390708F076CF8091CB0166
:1006D0000E940E021092F7011092F6011092D001C2
:1006E000DF91CF911F910F91FF90EF90DF90CF900E
:1006F00008959D9191938F5F75CF85EEB0CF8091D6
:10070000CC019091CD01A091CE01B091CF01892B68
:100710008A2B8B2B09F4A9CF0E9434010091CC01C4
:100720001091CD012091CE013091CF016C197D093E
:100730008E099F09061717072807390708F095CF74
:10074000C5CF60E870E084E392E00C94B50261E00C
:1007500070E084E392E00E94B5028BE39FE1019791
:10076000F1F780913D0281110C94A103089570E08E
:1007700070640E94B50281E090E0089590E080E00E
:1007800008958F929F92AF92BF920F931F93CF9332
:10079000DF93CDB7DEB7A1970FB6F894DEBF0FBEDB
:1007A000CDBF19A2423008F44AE08E010F5D1F4F01
:1007B000842E912CB12CA12CA50194010E94DC085F
:1007C000E62FB901CA01EA3044F5E05DD801EE93A5
:1007D0008D01232B242B252B79F790E080E01097B7
:1007E00069F0FD0101900020E9F73197AF014A1B44
:1007F0005B0BBD0184E392E00E949B01A1960FB6C2
:10080000F894DEBF0FBECDBFDF91CF911F910F9146
:10081000BF90AF909F908F900895E95CD7CFCF9213
:10082000DF92EF92FF926B017C016DE270E484E352
:1008300092E00E94B50266277727CB016C197D09EB
:100840008E099F094AE00E94C1030196FF90EF9034
:10085000DF90CF900895FC0101900020E9F73197D7
:10086000AF01481B590BBC0184E392E00C949B013F
:1008700085ED8093BC008091CC019091CD01A09139
:10088000CE01B091CF010796A11DB11D23E0B69511
:10089000A795979587952A95D1F72091BC0024FDBF
:1008A00003C01092CA0108954091CC015091CD012E
:1008B0006091CE017091CF01452B462B472B69F3F8
:1008C0000097A105B10541F02AE22A95F1F700C091
:1008D0000197A109B109E1CF8091CB010C940E02DF
:1008E0001F920F920FB60F9211242F933F938F9365
:1008F0009F93AF93BF9380911E0290911F02A0918E
:100900002002B091210230911D0223E0230F2D37E8
:1009100058F50196A11DB11D20931D0280931E0262
:1009200090931F02A0932002B09321028091220293
:1009300090912302A0912402B09125020196A11D5D
:10094000B11D8093220290932302A0932402B093BE
:100950002502BF91AF919F918F913F912F910F9061
:100960000FBE0F901F90189526E8230F0296A11D29
:10097000B11DD2CF1F920F920FB60F9211242F9359
:100980003F934F935F936F937F938F939F93AF9317
:10099000BF93EF93FF93E0910201F091030109955A
:1009A000FF91EF91BF91AF919F918F917F916F9147
:1009B0005F914F913F912F910F900FBE0F901F901D
:1009C00018951F920F920FB60F9211242F933F93F9
:1009D0004F935F936F937F938F939F93AF93BF9347
:1009E000EF93FF93E0910001F09101010995FF91D0
:1009F000EF91BF91AF919F918F917F916F915F9197
:100A00004F913F912F910F900FBE0F901F9018950F
:100A10001F920F920FB60F9211242F933F934F9373
:100A20005F936F937F938F939F93AF93BF93EF9356
:100A3000FF938091B900887F803609F44AC0F0F5B1
:100A4000883209F4A7C018F5803109F49BC0B8F4C6
:100A5000882309F4F9C0883009F494C0FF91EF911C
:100A6000BF91AF919F918F917F916F915F914F91C6
:100A70003F912F910F900FBE0F901F9018958831C6
:100A800009F488C0803251F78093C80114C08034C3
:100A900009F49DC040F48033B9F38833F9F68093AC
:100AA000C80185ECB0C0803509F485C0883509F4EB
:100AB00096C0883499F60E943804D0CF883909F45A
:100AC0008CC038F5883729F050F4883611F080371B
:100AD00029F683E08093CA011092A30157C0883899
:100AE00009F47BC0803919F0803809F0B7CF8091C4
:100AF000A301803208F071C0E091A30181E08E0F64
:100B00008093A3018091BB00F0E0ED57FE4F8083FE
:100B10003DC0803B39F0E0F4803A09F479C0883A6E
:100B200009F09CCF84E08093CA0110928201109258
:100B30008101E091F401F091F50109958091810125
:100B400081110FC081E0809381011092610109C081
:100B5000803C09F4A6CF883C09F4A3CF883B09F078
:100B60007DCFE091820181E08E0F80938201F0E0E1
:100B7000EF59FE4F80818093BB009091820180915C
:100B8000810129C08091A5018093BB0085EC8093F1
:100B9000BC0064CF9091C7018091C601981758F5A9
:100BA000E091C70181E08E0F8093C701F0E0EA5524
:100BB000FE4F8081E9CFE091C70181E08E0F8093E5
:100BC000C7018091BB00F0E0EA55FE4F8083909111
:100BD000C7018091C6019817C8F285E8D8CFE09187
:100BE000C70181E08E0F8093C7018091BB00F0E0C8
:100BF000EA55FE4F80838091C90181115CCF81E06D
:100C00008093A40184EA8093BC001092CA0126CF8D
:100C100085EC8093BC001092CA018091A3018032C0
:100C200030F4E091A301F0E0ED57FE4F10826091A7
:100C3000A30170E0E091F201F091F30183E891E00B
:100C400009951092A3010ACF1092C80134CFE6E2B1
:100C5000F2E01382128288EE93E0A0E0B0E0848399
:100C60009583A683B78388E091E091838083E4E352
:100C7000F2E0138212828AE191E0918380831186EF
:100C80008EE3848380E1828782E083870E94DD0097
:100C900090933302809332020895789484B58260F1
:100CA00084BD84B5816084BD85B5826085BD85B510
:100CB000816085BD80916E00816080936E0010928E
:100CC0008100809181008260809381008091810009
:100CD000816080938100809180008160809380009A
:100CE0008091B10084608093B1008091B0008160F8
:100CF0008093B00080917A00846080937A00809124
:100D00007A00826080937A0080917A00816080937B
:100D10007A0080917A00806880937A001092C100F6
:100D20001092F9011092F8011092F7011092F60159
:100D30000E94F00189E991E09093F5018093F4011C
:100D40008AE991E09093F3018093F20180E180932E
:100D5000390280913F02823018F098E19093390275
:100D600080933C028BE39DE00197F1F7609139029B
:100D7000606270E084E392E00E94B5028BE496E446
:100D80000197F1F760913902606270E084E392E0CC
:100D90000E94B50283E592E00197F1F76091390274
:100DA000606270E084E392E00E94B50260913902D3
:100DB000606270E084E392E00E94B50284E0809378
:100DC0003A026CE070E084E392E00E94B5020E9477
:100DD000A70382E080933B0266E070E084E392E048
:100DE0000E94B50262E070E084E392E00E94B502E6
:100DF0008BE39FE10197F1F782E00E948C0087E08E
:100E00000E948C0084E00E948C00C7E9D1E008E9D0
:100E100011E020E0E22E20E0F22EBB24B39483B751
:100E2000817F846083BF83B7816083BFD0930101DA
:100E3000C0930001809169008C7F80936900E89ADB
:100E400083B7816083BF889583B78E7F83BF83B765
:100E50008E7F83BFE898109301010093000184E026
:100E60000E94DD00892B09F48AC10E94A10382E25D
:100E700091E00E942B0460911B0270911C02072ECE
:100E8000000C880B990B97FF72C10E940F0482E03F
:100E90000E94DD006C0190933302809332028091B6
:100EA0001A028C151D0451F00E948B0160931602EA
:100EB0007093170280931802909319020E948B017D
:100EC000409016025090170260901802709019021C
:100ED00064197509860997096333710581059105C0
:100EE000E0F0809115028C151D04B9F081E0C11469
:100EF000D10409F480E080931502CD2871F060914F
:100F00001B0270911C026F5F7F4F70931C026093F5
:100F10001B0290E080E00E94CE0881E02091320226
:100F200030913302232B09F480E080931A0284E08D
:100F30000E94DD006C019093330280933202809115
:100F400014028C151D0451F00E948B016093100255
:100F50007093110280931202909313020E948B01EE
:100F60004090100250901102609012027090130293
:100F7000641975098609970963337105810591051F
:100F8000A8F080910F028C151D0481F081E0C1143E
:100F9000D10409F480E080930F02CD2839F083B7A3
:100FA000816083BF889583B78E7F83BF81E0209166
:100FB000320230913302232B09F480E08093140233
:100FC00087E00E94DD006C0190933302809332022F
:100FD00080910E028C151D0451F00E948B016093CC
:100FE0000A0270930B0280930C0290930D020E94F0
:100FF0008B0140900A0250900B0260900C0270909E
:101000000D02641975098609970963337105810515
:10101000910508F47AC0809109028C151D0409F429
:1010200074C081E0C114D10409F480E08093090206
:10103000CD2809F46AC00E94A7038CE291E00E94C7
:101040002B0468EE73E080E090E00E9459018091EB
:101050000502909106029093080280930702809106
:1010600003029091040290930602809305028091FE
:1010700001029091020290930402809303028091F6
:10108000FF019091000290930202809301028091EF
:10109000FD019091FE01909300028093FF018091E9
:1010A000FB019091FC019093FE018093FD018091E2
:1010B0001B0290911C029093FC018093FB018BEF2B
:1010C000882E81E0982E92E0C92ED12CF401A190B7
:1010D0004F01C6010E94C608A81621F06A2DC6015C
:1010E0000E94CE08FFEFCF1ADF0A80E1C816D104B4
:1010F00069F760911B0290E080E00E94CE08109298
:101100001C0210921B02B092FA0181E0209132027F
:1011100030913302232B09F480E080930E028091FA
:10112000FA01882309F49BCE0E94A70389E391E08A
:101130000E942B046091FB017091FC018091FD01E4
:101140009091FE01681B790B072E000C880B990B00
:1011500097FF11C00E940F0460ED77E080E090E0FF
:101160000E9459010E94A7031092FA0178CE4AE02A
:101170000E94C1038CCE4AE00E94C103EDCFE1146E
:10118000F10409F44CCE0E94000049CEF999FECF3B
:1011900092BD81BDF89A992780B50895262FF999B7
:1011A000FECF1FBA92BD81BD20BD0FB6F894FA9A4A
:1011B000F99A0FBE01960895A1E21A2EAA1BBB1B35
:1011C000FD010DC0AA1FBB1FEE1FFF1FA217B30713
:1011D000E407F50720F0A21BB30BE40BF50B661F29
:1011E000771F881F991F1A9469F7609570958095ED
:1011F00090959B01AC01BD01CF010895EE0FFF1F3B
:101200000590F491E02D0994F894FFCF980198018E
:101210000000000086025902BE032F0252023F0264
:10122000300200000000B7039B01BE03C801436FFA
:10123000756E7465723A2000526573657474696ED8
:0C124000672E2E2E00446966663A2000DE
:107E0000112484B714BE81FFF0D085E080938100F7
:107E100082E08093C00088E18093C10086E0809377
:107E2000C20080E18093C4008EE0C9D0259A86E02C
:107E300020E33CEF91E0309385002093840096BBD3
:107E4000B09BFECF1D9AA8958150A9F7CC24DD24C4
:107E500088248394B5E0AB2EA1E19A2EF3E0BF2EE7
:107E6000A2D0813461F49FD0082FAFD0023811F036
:107E7000013811F484E001C083E08DD089C08234E0
:107E800011F484E103C0853419F485E0A6D080C0E4
:107E9000853579F488D0E82EFF2485D0082F10E0AE
:107EA000102F00270E291F29000F111F8ED06801E7
:107EB0006FC0863521F484E090D080E0DECF843638
:107EC00009F040C070D06FD0082F6DD080E0C81688
:107ED00080E7D80618F4F601B7BEE895C0E0D1E017
:107EE00062D089930C17E1F7F0E0CF16F0E7DF06D8
:107EF00018F0F601B7BEE89568D007B600FCFDCFD4
:107F0000A601A0E0B1E02C9130E011968C91119780
:107F100090E0982F8827822B932B1296FA010C0160
:107F200087BEE89511244E5F5F4FF1E0A038BF0790
:107F300051F7F601A7BEE89507B600FCFDCF97BE46
:107F4000E89526C08437B1F42ED02DD0F82E2BD052
:107F50003CD0F601EF2C8F010F5F1F4F84911BD097
:107F6000EA94F801C1F70894C11CD11CFA94CF0C13
:107F7000D11C0EC0853739F428D08EE10CD085E9AC
:107F80000AD08FE07ACF813511F488E018D01DD067
:107F900080E101D065CF982F8091C00085FFFCCF94
:107FA0009093C60008958091C00087FFFCCF809118
:107FB000C00084FD01C0A8958091C6000895E0E648
:107FC000F0E098E1908380830895EDDF803219F02E
:107FD00088E0F5DFFFCF84E1DECF1F93182FE3DFCA
:107FE0001150E9F7F2DF1F91089580E0E8DFEE27F6
:047FF000FF270994CA
:027FFE00040479
:00000001FF
