:100000000C9462000C948A000C948A000C948A0070
:100010000C948A000C948A000C948A000C948A0038
:100020000C948A000C948A000C948A000C948A0028
:100030000C948A000C948A000C948A000C948A0018
:100040000C948B060C948A000C94FB060C94D50639
:100050000C948A000C948A000C948A000C948A00F8
:100060000C942D070C948A00000000002300260049
:10007000290000000000240027002A0000000000E2
:10008000250028002B0004040404040404040202D4
:100090000202020203030303030301020408102007
:1000A0004080010204081020010204081020000012
:1000B0000008000201000003040700000000000027
:1000C00000004C0811241FBECFEFD8E0DEBFCDBF2B
:1000D00012E0A0E0B1E0E6E4FBE102C005900D9281
:1000E000A830B107D9F725E0A8E0B2E001C01D9221
:1000F000AE3BB207E1F710E0C2E6D0E004C02197C2
:10010000FE010E94940DC136D107C9F70E949408E0
:100110000C94A10D0C940000833081F028F4813000
:1001200099F08230A9F008958730A9F08830C9F09D
:100130008430B1F4809180008F7D03C08091800075
:100140008F7780938000089584B58F7784BD08955C
:1001500084B58F7DFBCF8091B0008F778093B00006
:1001600008958091B0008F7DF9CF1F93CF93DF93D7
:10017000282F30E0F901E255FF4F8491F901E6564E
:10018000FF4FD491F901EA57FF4FC491CC23A9F056
:10019000162F81110E948C00EC2FF0E0EE0FFF1F54
:1001A000E458FF4FA591B4918FB7F894EC911111D9
:1001B00008C0D095DE23DC938FBFDF91CF911F91D4
:1001C0000895DE2BF8CF3FB7F89480910505909104
:1001D0000605A0910705B091080526B5A89B05C0A6
:1001E0002F3F19F00196A11DB11D3FBFBA2FA92FB6
:1001F000982F8827BC01CD01620F711D811D911DB3
:1002000042E0660F771F881F991F4A95D1F708951E
:100210008F929F92AF92BF92CF92DF92EF92FF9216
:100220006B017C010E94E3004B015C01C114D1040D
:10023000E104F104B9F00E94E300681979098A0920
:100240009B09683E73408105910580F321E0C21A45
:10025000D108E108F10888EE880E83E0981EA11C01
:10026000B11CE4CFFF90EF90DF90CF90BF90AF90A4
:100270009F908F90089508950895AF92BF92CF9266
:10028000DF92EF92FF920F931F93CF93DF936C0156
:100290007B018B01040F151FEB015E01AE18BF0837
:1002A000C017D10759F06991D601ED91FC910190E9
:1002B000F081E02DC6010995892B79F7C501DF9101
:1002C000CF911F910F91FF90EF90DF90CF90BF9053
:1002D000AF900895FC01538D448D252F30E0842F7D
:1002E00090E0821B930B541710F0CF96089501975E
:1002F0000895FC01918D828D981761F0A28DAE0F4B
:10030000BF2FB11D5D968C91928D9F5F9F73928FD1
:1003100090E008958FEF9FEF0895FC01918D828DFD
:10032000981731F0828DE80FF11D858D90E00895CA
:100330008FEF9FEF0895FC01918D228D892F90E022
:10034000805C9F4F821B91098F739927089589E0E4
:1003500095E00E949B0121E0892B09F420E0822F87
:10036000089580E090E0892B29F00E94A701811177
:100370000C9400000895FC01A48DA80FB92FB11DA5
:10038000A35ABF4F2C91848D90E001968F739927CB
:10039000848FA689B7892C93A089B1898C918370A9
:1003A00080648C93938D848D981306C00288F389A2
:1003B000E02D80818F7D80830895EF92FF920F93CF
:1003C0001F93CF93DF93EC0181E0888F9B8D8C8D01
:1003D00098131AC0E889F989808185FF15C09FB7F5
:1003E000F894EE89FF896083E889F98980818370B8
:1003F000806480839FBF81E090E0DF91CF911F9167
:100400000F91FF90EF900895F62E0B8D10E00F5F87
:100410001F4F0F731127E02E8C8D8E110CC00FB65D
:1004200007FCFACFE889F989808185FFF5CFCE01F5
:100430000E94BB01F1CFEB8DEC0FFD2FF11DE35AB4
:10044000FF4FF0829FB7F8940B8FEA89FB89808178
:100450008062CFCFCF93DF93EC01888D8823B9F0F2
:10046000AA89BB89E889F9898C9185FD03C08081BF
:1004700086FD0DC00FB607FCF7CF8C9185FFF2CF3C
:10048000808185FFEDCFCE010E94BB01E9CFDF91D6
:10049000CF910895089520915D02260F3327331FD1
:1004A00021323105ECF42091A602FC0190E080E0BD
:1004B000243069F082E00895A0915D022191AC01A1
:1004C000435C5D4FA40FB52FB11D2C930196861789
:1004D00098F380915D02680F60935D0280E008955B
:1004E00081E008951092A60281E08093A502109207
:1004F000800261E082E10E94B50061E083E10E9438
:10050000B500E9EBF0E080818E7F808380818D7F74
:10051000808388E48093B80085E48093BC000895CC
:10052000CF93DF9391E090933C028823B9F0C09180
:10053000B800D091BA008091BC008A7B8093BC0047
:1005400060E082E10E94B50060E083E10E94B500B6
:100550000E947202D093BA00C093B800DF91CF918D
:1005600008950895E091D5028091D402E81730F4FF
:10057000F0E0E45EFD4F808190E008958FEF9FEF03
:1005800008959091D5028091D4022FEF3FEF9817F4
:1005900048F4E92FF0E0E45EFD4F208130E09F5FFA
:1005A0009093D502C90108958091D4029091D5020B
:1005B000891B990B0895CF92DF92EF92FF920F93D0
:1005C0001F93CF93DF937C01CB018A012091AC0272
:1005D000222389F0EB016B01C40ED51ECC15DD057D
:1005E00069F06991D701ED91FC910190F081E02DC6
:1005F000C7010995F3CF642F0E944B02C801DF9118
:10060000CF911F910F91FF90EF90DF90CF900895C1
:10061000CF93DF931F92CDB7DEB769832091AC02F1
:100620002223F9F02091D202203258F021E030E06C
:10063000FC013383228390E080E00F90DF91CF9123
:1006400008958091D302E82FF0E0E355FD4F9981A2
:1006500090838F5F8093D3028093D20281E090E0F9
:10066000ECCF61E0CE0101960E944B02F7CFCF9212
:10067000DF92EF92FF920F931F93CF93DF93D62FCA
:10068000672FFC01C48181E08093AC02C093CD024E
:100690001092D3021092D20286EA95E00E940803DB
:1006A0006D2F86EA95E00E940803D091D202D132E4
:1006B00008F092C00E94E3006B017C018091A602C9
:1006C000811165C082E08093A60281E08093A5023B
:1006D0008FEF8093A4021092A302D093A202ADEAFE
:1006E000B2E0E2E8F2E080E0D81385C01092810227
:1006F00080918102CC0FC82BC0938102809180022F
:10070000813009F07CC0109280020E94E3006B01EE
:100710007C01809181028093BB008091A80290911E
:10072000A902A091AA02B091AB02892B8A2B8B2B34
:1007300099F00E94E3000091A8021091A902209173
:10074000AA023091AB026C197D098E099F09061728
:10075000170728073907E0F18091BC0083FDD9CF46
:1007600085EC8093BC000E94E3006B017C018091CA
:10077000A602823009F445C08091A4028F3F61F146
:100780008091A402803241F18091A40225C0809121
:10079000A8029091A902A091AA02B091AB02892B64
:1007A0008A2B8B2B09F48ACF0E94E3000091A802C8
:1007B0001091A9022091AA023091AB026C197D0917
:1007C0008E099F09061717072807390708F076CF03
:1007D0008091A7020E9490021092D3021092D2023E
:1007E0001092AC02DF91CF911F910F91FF90EF908B
:1007F000DF90CF9008959D9191938F5F75CF85EE97
:10080000B0CF8091A8029091A902A091AA02B091C4
:10081000AB02892B8A2B8B2B09F4A9CF0E94E30012
:100820000091A8021091A9022091AA023091AB0276
:100830006C197D098E099F090617170728073907C4
:1008400008F095CFC5CFCF93DF93CDB7DEB728970C
:100850000FB6F894DEBF0FBECDBF98E0EAE0F1E03E
:10086000DE01119601900D929A95E1F79091BA05EB
:10087000961708F46FEF70E0660F771F21E030E005
:100880002C0F3D1F620F731FFB016081860F806874
:10089000682F70E082EB95E028960FB6F894DEBFE3
:1008A0000FBECDBFDF91CF910C94370361E070E0B4
:1008B00082EB95E00E9437038BE39FE10197F1F70C
:1008C0008091BB05882321F060E080E00C94230434
:1008D000089570E070640E94370381E090E008950D
:1008E00090E080E00895CF92DF92EF92FF92CF9355
:1008F000C82F7B0161E00E94B50084E68E9D6001F7
:100900008F9DD00C11240D2C000CEE08FF08C701A0
:10091000B6010E94080160E08C2F0E94B500C7015B
:10092000B601CF91FF90EF90DF90CF900C9408012B
:100930004F925F926F927F928F929F92AF92BF92EF
:10094000CF92DF92EF92FF920F931F93CF93DF939B
:100950005C0122E1C22E21E0D22E08E112E038E053
:10096000E32E32E0F32ED0E0C0E0F6012191319188
:100970006F013327F901E255FF4F8491F901E656E3
:10098000FF4F9490F901EA57FF4F8490882009F4B3
:1009900066C081110E948C00E82DF0E0EE0FFF1F71
:1009A000E859FF4FA591B491EC919E2231E020E0EF
:1009B00009F430E0832F922F282F2170F801308125
:1009C000321781F03FB7F89440910105509102052C
:1009D00060910305709104053FBFF7014083518387
:1009E000628373833FB7F8944091010550910205EB
:1009F00060910305709104053FBFF701419051904C
:100A0000619071907F014419550966097709433354
:100A100051056105710530F1892B21F1FE01EE0FC1
:100A2000FF1FE65EFE4F00811181B501C8010E94E3
:100A30007304C85EDD4F81E08883C801DF91CF91E8
:100A40001F910F91FF90EF90DF90CF90BF90AF90EC
:100A50009F908F907F906F905F904F90089590E05F
:100A600080E0AACFF80121938F012196C430D105EF
:100A700009F07BCF0FEF1FEFE0CFFB0101900020CB
:100A8000E9F73197AF01461B570BDC01ED91FC9163
:100A90000280F381E02D09948F929F92AF92BF92D2
:100AA000EF92FF920F931F93CF93DF93CDB7DEB7F3
:100AB000A1970FB6F894DEBF0FBECDBF7C01FA013F
:100AC000CB0119A2223008F42AE08E010F5D1F4FDE
:100AD000822E912CB12CA12CBF01A50194010E9462
:100AE000630DF901CA016A300CF5605DD8016E939F
:100AF0008D01232B242B252B79F790E080E0109794
:100B000021F0BD01C7010E943D05A1960FB6F894E2
:100B1000DEBF0FBECDBFDF91CF911F910F91FF9030
:100B2000EF90BF90AF909F908F900895695CDECF5B
:100B3000CF92DF92EF92FF920F931F93CF93DF93A9
:100B40006B01770FEE08FF08F7FE1FC0EC01E8818C
:100B5000F9810190F081E02D6DE209958C01442727
:100B60005527BA014C195D096E097F092AE0CE01AB
:100B70000E944C05800F911FDF91CF911F910F9123
:100B8000FF90EF90DF90CF9008952AE0B701A60183
:100B9000DF91CF911F910F91FF90EF90DF90CF9059
:100BA0000C944C05CF93DF93BC0189E095E00E9443
:100BB0009805EC0162E571E089E095E00E943D0551
:100BC0008C0F9D1FDF91CF9108950C943D0560E03F
:100BD00080E00E9423046EEE71E082EB95E00E94BB
:100BE000E5056091FE047091FF0482EB95E00C94A2
:100BF00098051092FF041092FE0460E080E00E94CD
:100C0000230465E571E082EB95E00E94E50568EE5E
:100C100073E080E090E00E9408010E94560460E0CA
:100C200080E00E9423046FE571E082EB95E00E9472
:100C3000E5056CED75E080E090E00E9408010E94FF
:100C400056040C94E70585ED8093BC008091A802C2
:100C50009091A902A091AA02B091AB020796A11DA2
:100C6000B11D23E0B695A795979587952A95D1F75D
:100C70002091BC0024FD03C01092A602089540916B
:100C8000A8025091A9026091AA027091AB02452B73
:100C9000462B472B69F30097A105B10541F02AE2E5
:100CA0002A95F1F700C00197A109B109E1CF809120
:100CB000A7020C9490029F92AF92BF92CF92DF92C4
:100CC000EF92FF920F931F93CF93DF935C017B0111
:100CD0008B01D0E0C0E0F80191908F016501CC0E4E
:100CE000DD1EC6010E941B0D981621F0692DC6015C
:100CF0000E94230D2196C830D10569F7C701DF9105
:100D0000CF911F910F91FF90EF90DF90CF90BF9008
:100D1000AF909F9008951F920F920FB60F921124DB
:100D20002F933F938F939F93AF93BF938091010530
:100D300090910205A0910305B09104053091000542
:100D400023E0230F2D3758F50196A11DB11D2093E7
:100D500000058093010590930205A0930305B093CD
:100D600004058091050590910605A0910705B091B5
:100D700008050196A11DB11D8093050590930605F8
:100D8000A0930705B0930805BF91AF919F918F91F4
:100D90003F912F910F900FBE0F901F90189526E84E
:100DA000230F0296A11DB11DD2CF1F920F920FB635
:100DB0000F9211242F933F934F935F936F937F93E1
:100DC0008F939F93AF93BF93EF93FF9389E095E049
:100DD0000E94BB01FF91EF91BF91AF919F918F91C5
:100DE0007F916F915F914F913F912F910F900FBE27
:100DF0000F901F9018951F920F920FB60F9211240B
:100E00002F938F939F93EF93FF93E0911905F091A8
:100E10001A058081E0911F05F091200582FD1BC01D
:100E20009081809122058F5F8F7320912305821717
:100E300041F0E0912205F0E0E75FFA4F958F809353
:100E40002205FF91EF919F918F912F910F900FBEEF
:100E50000F901F9018958081F4CF1F920F920FB6BC
:100E60000F9211242F933F934F935F936F937F9330
:100E70008F939F93AF93BF93EF93FF938091B900AC
:100E8000887F803609F44AC0F0F5883209F4A7C09B
:100E900018F5803109F49BC0B8F4882309F4F9C02F
:100EA000883009F494C0FF91EF91BF91AF919F9169
:100EB0008F917F916F915F914F913F912F910F9003
:100EC0000FBE0F901F901895883109F488C08032AA
:100ED00051F78093A40214C0803409F49DC040F4FB
:100EE0008033B9F38833F9F68093A40285ECB0C05F
:100EF000803509F485C0883509F496C0883499F6A0
:100F00000E942306D0CF883909F48CC038F5883781
:100F100029F050F4883611F0803729F683E0809369
:100F2000A60210927F0257C0883809F47BC080392E
:100F300019F0803809F0B7CF80917F02803208F035
:100F400071C0E0917F0281E08E0F80937F028091DB
:100F5000BB00F0E0E15AFD4F80833DC0803B39F09B
:100F6000E0F4803A09F479C0883A09F09CCF84E033
:100F70008093A60210925E0210925D02E091D00270
:100F8000F091D102099580915D0281110FC081E03D
:100F900080935D0210923D0209C0803C09F4A6CF07
:100FA000883C09F4A3CF883B09F07DCFE0915E0235
:100FB00081E08E0F80935E02F0E0E35CFD4F808164
:100FC0008093BB0090915E0280915D0229C0809168
:100FD00081028093BB0085EC8093BC0064CF90912C
:100FE000A3028091A202981758F5E091A30281E034
:100FF0008E0F8093A302F0E0EE57FD4F8081E9CF82
:10100000E091A30281E08E0F8093A3028091BB0048
:10101000F0E0EE57FD4F80839091A3028091A202F1
:101020009817C8F285E8D8CFE091A30281E08E0F2F
:101030008093A3028091BB00F0E0EE57FD4F8083C8
:101040008091A50281115CCF81E08093800284EAC7
:101050008093BC001092A60226CF85EC8093BC0042
:101060001092A60280917F02803230F4E0917F02DC
:10107000F0E0E15AFD4F108260917F0270E0E09154
:10108000CE02F091CF028FE592E0099510927F0297
:101090000ACF1092A40234CFE9E0F5E01382128265
:1010A00088EE93E0A0E0B0E084839583A683B783C5
:1010B00026E231E03183208325EC30E03587248738
:1010C00024EC30E03787268720EC30E0318B208B12
:1010D00021EC30E0338B228B22EC30E0358B248BFB
:1010E00026EC30E0378B268B118E128E138E148EE9
:1010F000E6EAF5E01382128284839583A683B783A0
:1011000088E391E091838083E2EBF5E01382128221
:101110008AE491E09183808311868EE3848380E169
:10112000828782E083870895CF93DF9300D000D039
:1011300000D0CDB7DEB7789484B5826084BD84B525
:10114000816084BD85B5826085BD85B5816085BDC2
:1011500080916E00816080936E001092810080917A
:101160008100826080938100809181008160809302
:101170008100809180008160809380008091B10027
:1011800084608093B1008091B00081608093B00052
:1011900080917A00846080937A0080917A008260E6
:1011A00080937A0080917A00816080937A008091A8
:1011B0007A00806880937A001092C10006ED12E0F8
:1011C000F12CE12C580188E0A80EB11C6801470100
:1011D000801A910AC4018C0D9D1D0E941B0DF60101
:1011E00081936F01AE16BF06A9F7B8016E5F7F4FFE
:1011F00089E095E00E94E50566E671E089E095E00A
:101200000E94E505F801808191810E94D205F8E0F5
:10121000EF0EF11C850188E2E816F10499F61092B0
:10122000D5021092D4021092D3021092D2020E94E0
:1012300072028BE391E09093D1028093D0028CE311
:1012400091E09093CF028093CE0280E18093B70526
:101250008091BD05823018F098E19093B705809396
:10126000BA058BE39DE00197F1F76091B7056062E5
:1012700070E082EB95E00E9437038BE496E40197DF
:10128000F1F76091B705606270E082EB95E00E9433
:10129000370383E592E00197F1F76091B70560624B
:1012A00070E082EB95E00E9437036091B7056062C1
:1012B00070E082EB95E00E94370384E08093B805EC
:1012C0006CE070E082EB95E00E9437030E945604C8
:1012D00012E01093B90566E070E082EB95E00E94A1
:1012E000370362E070E082EB95E00E9437038BE306
:1012F0009FE10197F1F7E0911905F0911A0510832C
:10130000E0911505F09116051082E0911705F09116
:1013100018058FEC808310922105E0911D05F09156
:101320001E0586E08083E0911B05F0911C058081FD
:1013300080618083E0911B05F0911C0580818860AD
:101340008083E0911B05F0911C058081806880837B
:10135000E0911B05F0911C0580818F7D808380E4E6
:1013600080937C0080917A00806480937A008091E1
:101370007A0086FDFCCF6091780070917900072E8D
:10138000000C880B990B611571058105910511F011
:101390000E94120DAAE1B1E08D919D919927FC0167
:1013A000E656FF4F24918A579F4FFC018491882372
:1013B000A1F090E0880F991FFC01EE58FF4F459176
:1013C0005491FC01E458FF4F859194918FB7F894A4
:1013D000FA019081922B90838FBFF1E0A232BF0778
:1013E000D9F60E94F90574E0472E512C612C712C1E
:1013F0000091FE041091FF040E94C30C000F111F06
:1014000002501D4FA30192010E94310D660F771FFC
:10141000665E7E4FFB0180819181F801918380831C
:1014200069E671E089E095E00E94E505E091FE043F
:10143000F091FF04EE0FFF1FE250FD4F808191817C
:101440000E94D2050EEF12E0F12CE12C8091FE04F7
:101450009091FF048E159F0514F160E080E00E94DA
:1014600023040E94560466E771E082EB95E00E9437
:10147000E50564EF71E080E090E00E94080165E01E
:1014800070E0F801819191918F010E9473040E9494
:1014900056040E94E705FFEFEF1AFF0AD7CF68EE68
:1014A00073E080E090E00E94080161E080E00E942B
:1014B000230465E871E082EB95E00E94E50510E009
:1014C00000E08091FE049091FF04801791070CF4D6
:1014D000AFC185E090E00E94980497FDF2CFF8013B
:1014E000EE0FFF1FE250FD4F2081318182179307DD
:1014F00009F0A6C10F5F1F4FE4CF8430910509F0BA
:1015000042C00F35110511F40BE510E0015011092F
:1015100001341105ACF1F701E050FF4F008361E0A9
:1015200080E00E94230460E071E082EB95E00E947D
:10153000E50585E0E816F104D4F561E08E2D0E9402
:1015400023046091B805862F81608093B805696097
:1015500070E082EB95E00E94370382E090E00E9409
:10156000980497FDE6CF8330910539F60F351105C4
:1015700011F400E410E00F5F1F4F0B3511055CF212
:101580000FE510E0C8CF8230910559F49FEFE91ABA
:10159000F90AF701E050FF4F0081002E000C110BFB
:1015A000C8CF059731F6E1E0EE1AF108F2CFE0E09E
:1015B000F1E081918F3521F4DF01119780E28C9366
:1015C00085E091E08E179F07A1F765E971E089E05A
:1015D00095E00E943D0562E571E089E095E00E949A
:1015E0003D0560E071E0CE0101960E949A0DC09029
:1015F000FE04D090FF04E6EDF2E010E000E0808110
:101600009181C816D9060CF0D6C00F5F1F4F3896CF
:1016100005301105A1F783E0000F111F8A95E1F74E
:10162000BE016F5F7F4FC80188529D4F0E949A0D87
:10163000B8016A527D4FFB01D182C082C8010E946D
:101640005B0661EB71E089E095E00E94E505A80189
:1016500070E060E02AE089E095E00E944C0562E5D8
:1016600071E089E095E00E943D056CEB71E080E05F
:1016700091E00E949A0D0E94560460E080E00E9472
:10168000230462EC71E082EB95E00E94E50568EED0
:1016900073E080E090E00E94080106ED12E0F12C7A
:1016A000E12C6701FFEFCF1ADF0AF801828188235E
:1016B00009F46AC05801F2E0AF0EB11CB50189E02F
:1016C00095E00E94E50566E671E089E095E00E94FC
:1016D000E505F801808191810E94D2050E9456049F
:1016E00060E080E00E942304B70182EB95E00E9455
:1016F000980567E671E082EB95E00E94E505B5018B
:1017000082EB95E00E94E50567E671E082EB95E0EB
:101710000E94E505F8016081718182EB95E00E94ED
:101720009805F5E0CF16D10419F161E080E00E9440
:101730002304B60182EB95E00E94980567E671E00C
:1017400082EB95E00E94E505B801665F7F4F82EB72
:1017500095E00E94E50567E671E082EB95E00E9466
:10176000E505F8016085718582EB95E00E9498059A
:101770006CED75E080E090E00E94080160E080E0A0
:101780000E9423040E945604085F1F4F7601F5E073
:10179000CF16D10409F085CF0E94F90580E090E0D2
:1017A000892B09F425CE0E94A701882309F420CEB5
:1017B0000E9400001DCE66ED72E090E2892E912C11
:1017C000A12CB12C24E0E22EF12C1B0198E0291A67
:1017D00031080E151F050CF01ECFE1E0EE1AF108DE
:1017E00088E0FB017896DB01909601900D928A9536
:1017F000E1F7605E7F4FC4010E945B0666EA71E01C
:1018000089E095E00E94E5052AE0B501A40189E0A0
:1018100095E00E944C0562E571E089E095E00E9448
:101820003D05F8E08F1A9108A108B108B101CDCFAC
:1018300001969093FF048093FE040E94E705AECFCB
:1018400061ED71E089E095E00E943D0562E571E09F
:1018500089E095E00E943D050E94560460E080E02A
:101860000E94230468ED71E082EB95E00E94E5059B
:101870006CED75E080E090E00E9408010E94560443
:1018800060E080E00E94230468EE71E082EB95E066
:101890000E94E5056091FE047091FF0482EB95E0E3
:1018A0000E9498056CED75E080E090E00E940801D0
:1018B00060E080E00E9423040E94560460E080E023
:1018C0000E94230466EF71E082EB95E00E94E5053B
:1018D00061E080E00E94230460E071E082EB95E02B
:1018E0000E94E50500E410E0F12CE12C22CE8F925D
:1018F0009F92AF92BF92CF92DF92EF92FF92CF93DF
:10190000DF93EC01688179818A819B816115710582
:101910008105910521F464E279ED8BE597E02DE1F5
:1019200033EF41E050E00E94310D49015A019B0123
:10193000AC01A7EAB1E40E94500D6B017C01ACEE52
:10194000B4EFA50194010E945E0DC60ED71EE81EDD
:10195000F91EF7FE06C081E0C81AD108E10880E848
:10196000F80AC882D982EA82FB82C701B6019F7752
:10197000DF91CF91FF90EF90DF90CF90BF90AF902D
:101980009F908F9008958F929F92AF92BF92CF9227
:10199000DF92EF92FF9260910601709107018091B2
:1019A000080190910901611571058105910521F4E6
:1019B00064E279ED8BE597E02DE133EF41E050E013
:1019C0000E94310D49015A019B01AC01A7EAB1E423
:1019D0000E94500D6B017C01ACEEB4EFA5019401A7
:1019E0000E945E0DC60ED71EE81EF91EF7FE06C049
:1019F00081E0C81AD108E10880E8F80AC09206011F
:101A0000D0920701E0920801F0920901C701B601E6
:101A10009F77FF90EF90DF90CF90BF90AF909F9017
:101A20008F900895609306017093070180930801D9
:101A3000909309010895F999FECF92BD81BDF89A5E
:101A4000992780B50895262FF999FECF1FBA92BD28
:101A500081BD20BD0FB6F894FA9AF99A0FBE01968F
:101A60000895052E97FB1EF400940E94480D57FD23
:101A700007D00E94630D07FC03D04EF40C94480D70
:101A800050954095309521953F4F4F4F5F4F0895AA
:101A900090958095709561957F4F8F4F9F4F0895DA
:101AA0000E94850DA59F900DB49F900DA49F800D61
:101AB000911D11240895B7FF0C94500D0E94500DF4
:101AC000821B930B0895A1E21A2EAA1BBB1BFD01DA
:101AD0000DC0AA1FBB1FEE1FFF1FA217B307E4070D
:101AE000F50720F0A21BB30BE40BF50B661F771F65
:101AF000881F991F1A9469F7609570958095909545
:101B00009B01AC01BD01CF010895A29FB001B39F1D
:101B1000C001A39F700D811D1124911DB29F700DF6
:101B2000811D1124911D0895EE0FFF1F0590F49162
:101B3000E02D0994FB01DC0101900D920020E1F7FA
:061B40000895F894FFCFA8
:101B46005F5F5F5F5F00010000000000400014005F
:101B56005400060009000700080003000500020003
:101B6600040000000000DD013D016A012A029B011C
:101B760079018D01000000000803DB027004B10248
:101B8600D402C102B2020000000069043D017004E3
:101B96004A020D0A004E65772047616D65210053A4
:101BA6007461727421002C200052616E646F6D2086
:101BB6004C45443A200050617920617474656E7416
:101BC600696F6E2100456E746572204C4544732022
:101BD6007365712E00536176696E67206869676860
:101BE60073636F7265004D6F76656420746F3A207B
:101BF60000536176656420696E203A005F5F5F5F1F
:101C06005F004869676873636F726573203A3A3A92
:101C1600005065726465750057726F6E6720736554
:101C26007175656E6365210046696E616C2053634C
:101C36006F72653A2000456E74657220796F757211
:081C4600206E69636B3A000097
:00000001FF
