:020000040000FA
:100000000C9462000C948A000C948A000C948A0070
:100010000C948A000C948A000C948A000C948A0038
:100020000C948A000C948A000C948A000C948A0028
:100030000C948A000C948A000C948A000C948A0018
:100040000C9473060C948A000C94E3060C94BD0681
:100050000C948A000C948A000C948A000C948A00F8
:100060000C9415070C948A00000000002300260061
:10007000290000000008000201000003040700003E
:1000800000000000000000000000250028002B00F8
:1000900000000000240027002A00040404040404D3
:1000A0000404020202020202030303030303010227
:1000B00004081020408001020408102001020408F6
:1000C0001020340811241FBECFEFD8E0DEBFCDBF13
:1000D00011E0A0E0B1E0EAE5FAE102C005900D927E
:1000E000A03BB107D9F723E0A0EBB1E001C01D921E
:1000F000A235B207E1F710E0C2E6D0E004C02197D4
:10010000FE010E94250DC136D107C9F70E947C0867
:100110000C942B0D0C940000CF93DF9390E0FC0126
:10012000E255FF4F249186569F4FFC01849188230E
:10013000C1F090E0880F991FFC01E057FF4FC59177
:10014000D491FC01EA57FF4FA591B4919FB7F89461
:100150003881822F809583238883EC91E22BEC9366
:100160009FBFDF91CF910895833081F028F48130D3
:1001700099F08230A9F008958730A9F08830C9F04D
:100180008430B1F4809180008F7D03C08091800025
:100190008F7780938000089584B58F7784BD08950C
:1001A00084B58F7DFBCF8091B0008F778093B000B6
:1001B00008958091B0008F7DF9CFCF93DF93282FE2
:1001C00030E0F901EE58FF4F8491F901E255FF4FFD
:1001D000D491F901E656FF4FC491CC23A1F08111CF
:1001E0000E94B400EC2FF0E0EE0FFF1FE859FF4F24
:1001F000A591B491EC91ED2381E090E009F480E0C9
:10020000DF91CF91089580E090E0FACF1F93CF93D4
:10021000DF93282F30E0F901EE58FF4F8491F90168
:10022000E255FF4FD491F901E656FF4FC491CC231C
:10023000A9F0162F81110E94B400EC2FF0E0EE0F10
:10024000FF1FEA57FF4FA591B4918FB7F894EC9137
:10025000111108C0D095DE23DC938FBFDF91CF91C1
:100260001F910895DE2BF8CF3FB7F8948091990243
:1002700090919A02A0919B02B0919C0226B5A89BF6
:1002800005C02F3F19F00196A11DB11D3FBFBA2F28
:10029000A92F982F8827BC01CD01620F711D811DE8
:1002A000911D42E0660F771F881F991F4A95D1F76D
:1002B00008958F929F92AF92BF92CF92DF92EF926A
:1002C000FF924B015C010E9434016B017C010E9492
:1002D00034016C197D098E099F09683E73408105C0
:1002E0009105A8F321E0821A9108A108B10888EECF
:1002F000C80E83E0D81EE11CF11C81149104A104F6
:10030000B10429F7FF90EF90DF90CF90BF90AF90AE
:100310009F908F9008952FB7F894609195027091F7
:10032000960280919702909198022FBF08950895A8
:100330000895AF92BF92CF92DF92EF92FF920F9308
:100340001F93CF93DF936C017B018B01040F151F6B
:10035000EB015E01AE18BF08C017D10759F06991D3
:10036000D601ED91FC910190F081E02DC601099537
:10037000892B79F7C501DF91CF911F910F91FF90E4
:10038000EF90DF90CF90BF90AF900895FC01538D18
:10039000448D252F30E0842F90E0821B930B54175F
:1003A00010F0CF96089501970895FC01918D828DEC
:1003B000981761F0A28DAE0FBF2FB11D5D968C9185
:1003C000928D9F5F9F73928F90E008958FEF9FEFC4
:1003D0000895FC01918D828D981731F0828DE80F80
:1003E000F11D858D90E008958FEF9FEF0895FC013A
:1003F000918D228D892F90E0805C9F4F821B910907
:100400008F73992708958DE992E00E94F70121E00A
:10041000892B09F420E0822F089580E090E0892B59
:1004200029F00E94030281110C9400000895FC0140
:10043000A48DA80FB92FB11DA35ABF4F2C91848D45
:1004400090E001968F739927848FA689B7892C93A2
:10045000A089B1898C91837080648C93938D848DF5
:10046000981306C00288F389E02D80818F7D8083F8
:100470000895EF92FF920F931F93CF93DF93EC01B8
:1004800081E0888F9B8D8C8D98131AC0E889F9893B
:10049000808185FF15C09FB7F894EE89FF8960833E
:1004A000E889F98980818370806480839FBF81E0BF
:1004B00090E0DF91CF911F910F91FF90EF90089501
:1004C000F62E0B8D10E00F5F1F4F0F731127E02EDC
:1004D0008C8D8E110CC00FB607FCFACFE889F98914
:1004E000808185FFF5CFCE010E941702F1CFEB8D01
:1004F000EC0FFD2FF11DE35AFF4FF0829FB7F894E8
:100500000B8FEA89FB8980818062CFCFCF93DF9305
:10051000EC01888D8823B9F0AA89BB89E889F9891B
:100520008C9185FD03C0808186FD0DC00FB607FC50
:10053000F7CF8C9185FFF2CF808185FFEDCFCE0183
:100540000E941702E9CFDF91CF9108952091180200
:10055000260F3327331F21323105ECF420913C0262
:10056000FC0190E080E0243069F082E00895A091E1
:1005700018022191AC0148505E4FA40FB52FB11D58
:100580002C930196861798F380911802680F609358
:10059000180280E0089581E0089510923C0281E005
:1005A00080933E0210923D0261E082E10E940601CA
:1005B00061E083E10E940601E9EBF0E080818E7F3B
:1005C000808380818D7F808388E48093B80085E478
:1005D0008093BC000895CF93DF9391E09093F7014F
:1005E0008823B9F0C091B800D091BA008091BC00C6
:1005F0008A7B8093BC0060E082E10E94060160E09B
:1006000083E10E9406010E94CD02D093BA00C093FC
:10061000B800DF91CF9108950895E091690280912B
:100620006802E81730F4F0E0EE52FE4F808190E06F
:1006300008958FEF9FEF089590916902809168026D
:100640002FEF3FEF981748F4E92FF0E0EE52FE4FFE
:10065000208130E09F5F90936902C90108958091E5
:10066000680290916902891B990B0895CF92DF92DD
:10067000EF92FF920F931F93CF93DF937C01CB01F7
:100680008A012091D101222389F0EB016B01C40E74
:10069000D51ECC15DD0569F06991D701ED91FC916E
:1006A0000190F081E02DC7010995F3CF642F0E94DE
:1006B000A602C801DF91CF911F910F91FF90EF909B
:1006C000DF90CF900895CF93DF931F92CDB7DEB721
:1006D00069832091D1012223F9F020916602203212
:1006E00058F021E030E0FC013383228390E080E089
:1006F0000F90DF91CF91089580916702E82FF0E08D
:10070000EF54FE4F998190838F5F809367028093AF
:10071000660281E090E0ECCF61E0CE0101960E949C
:10072000A602F7CFCF92DF92EF92FF920F931F9323
:10073000CF93DF93D62F672FFC01C48181E0809394
:10074000D101C093B00110926702109266028AE351
:1007500093E00E9463036D2F8AE393E00E9463039A
:10076000D0916602D13208F092C00E9434016B0130
:100770007C0180913C02811165C082E080933C0243
:1007800081E080933E028FEF80933B0210926002E3
:10079000D0935F02A1EBB1E0EFE3F2E080E0D81389
:1007A00085C01092610280916102CC0FC82BC0936A
:1007B000610280913D02813009F07CC010923D02BF
:1007C0000E9434016B017C01809161028093BB0027
:1007D0008091F3019091F401A091F501B091F6019F
:1007E000892B8A2B8B2B99F00E9434010091F30105
:1007F0001091F4012091F5013091F6016C197D09F9
:100800008E099F090617170728073907E0F180911D
:10081000BC0083FDD9CF85EC8093BC000E943401DD
:100820006B017C0180913C02823009F445C08091CB
:100830003B028F3F61F180913B02803241F1809118
:100840003B0225C08091F3019091F401A091F50144
:10085000B091F601892B8A2B8B2B09F48ACF0E9449
:1008600034010091F3011091F4012091F5013091D0
:10087000F6016C197D098E099F09061717072807CD
:10088000390708F076CF8091F2010E94EB021092B6
:100890006702109266021092D101DF91CF911F91F1
:1008A0000F91FF90EF90DF90CF9008959D919193DD
:1008B0008F5F75CF85EEB0CF8091F3019091F401F9
:1008C000A091F501B091F601892B8A2B8B2B09F4AD
:1008D000A9CF0E9434010091F3011091F4012091FD
:1008E000F5013091F6016C197D098E099F090617F3
:1008F00017072807390708F095CFC5CFCF93DF93A7
:10090000CDB7DEB728970FB6F894DEBF0FBECDBFC8
:1009100098E0E0E4F1E0DE01119601900D929A95E5
:10092000E1F790914E03961708F46FEF70E0660FB1
:10093000771F21E030E02C0F3D1F620F731FFB017A
:100940006081860F8068682F70E086E493E02896C7
:100950000FB6F894DEBF0FBECDBFDF91CF910C94E0
:10096000920361E070E086E493E00E9492038BE3DF
:100970009FE10197F1F780914F03882321F060E018
:1009800080E00C947E04089570E070640E949203ED
:1009900081E090E00895089590E080E008954F92FE
:1009A0005F926F927F92AF92BF92CF92DF92EF925F
:1009B000FF920F931F93CF93DF93EC015B0180E4D1
:1009C00080937C0080917A00806480937A0080918B
:1009D0007A0086FDFCCF6091780070917900072E37
:1009E000000C880B990B611571058105910511F0BB
:1009F0000E94B90C8E01C12CD12C760125010B2C43
:100A0000000C66087708CA14DB04ECF5B601C414C0
:100A1000D504E604F70474F40E946A0CA301920161
:100A20002C193D094E095F090E94C20C6C0D7D1DF9
:100A30008E1D9F1DD801ED91FD918D01EE0FFF1FC1
:100A4000E85DFE4F20813181660F771F6C0F7D1F9F
:100A5000DB018D919C91DC01AA0FBB1FA85DBE4FED
:100A60008D919C9191838083DB01ED91FC91EE0F40
:100A7000FF1FE85DFE4F31832083BFEFCB1ADB0AF7
:100A8000EB0AFB0AC0CFDF91CF911F910F91FF902E
:100A9000EF90DF90CF90BF90AF907F906F905F907E
:100AA0004F900895FB0101900020E9F73197AF01C5
:100AB000461B570BDC01ED91FC910280F381E02D88
:100AC00009948F929F92AF92BF92EF92FF920F93F1
:100AD0001F93CF93DF93CDB7DEB7A1970FB6F894EE
:100AE000DEBF0FBECDBF7C01FA01CB0119A22230BF
:100AF00008F42AE08E010F5D1F4F822E912CB12C3D
:100B0000A12CBF01A50194010E94F40CF901CA01B6
:100B10006A300CF5605DD8016E938D01232B242B78
:100B2000252B79F790E080E0109721F0BD01C701F7
:100B30000E945205A1960FB6F894DEBF0FBECDBF3E
:100B4000DF91CF911F910F91FF90EF90BF90AF90E9
:100B50009F908F900895695CDECFCF92DF92EF92E5
:100B6000FF920F931F93CF93DF93EC016A017B01F8
:100B7000E881F9810190F081E02D6DE209958C0109
:100B800044275527BA014C195D096E097F092AE0EF
:100B9000CE010E946105800F911FDF91CF911F91BF
:100BA0000F91FF90EF90DF90CF900895AB01770FFA
:100BB000660B770B77FD0C94AD052AE00C9461056C
:100BC000CF93DF93C8E2D1E081E0CC33D80799F02E
:100BD00049915991052E000C660B770B77FF05C0E4
:100BE00086E493E00E94AD05EFCF2AE086E493E02F
:100BF0000E946105E9CFDF91CF910895BC0186E4A1
:100C000093E00C9452050E94B10461E0809190023F
:100C10000E947E0488E791E00E94FE0561E08091D9
:100C20008E020E947E048AE791E00E94FE0560E049
:100C300080E00E947E040C94E005CF93DF93AC012A
:100C4000990F660B770B77FF10C08DE992E00E9439
:100C5000AD05EC016CE771E08DE992E00E94520570
:100C60008C0F9D1FDF91CF9108952AE08DE992E0CE
:100C70000E946105EECF85ED8093BC008091F30169
:100C80009091F401A091F501B091F6010796A11D94
:100C9000B11D23E0B695A795979587952A95D1F72D
:100CA0002091BC0024FD03C010923C0208954091A5
:100CB000F3015091F4016091F5017091F601452B1B
:100CC000462B472B69F30097A105B10541F02AE2B5
:100CD0002A95F1F700C00197A109B109E1CF8091F0
:100CE000F2010C94EB021F920F920FB60F92112497
:100CF0002F933F938F939F93AF93BF9380919502D0
:100D000090919602A0919702B0919802309194022E
:100D100023E0230F2D3758F50196A11DB11D209317
:100D200094028093950290939602A0939702B093B9
:100D300098028091990290919A02A0919B02B091A1
:100D40009C020196A11DB11D8093990290939A0275
:100D5000A0939B02B0939C02BF91AF919F918F9102
:100D60003F912F910F900FBE0F901F90189526E87E
:100D7000230F0296A11DB11DD2CF1F920F920FB665
:100D80000F9211242F933F934F935F936F937F9311
:100D90008F939F93AF93BF93EF93FF938DE992E06F
:100DA0000E941702FF91EF91BF91AF919F918F9198
:100DB0007F916F915F914F913F912F910F900FBE57
:100DC0000F901F9018951F920F920FB60F9211243B
:100DD0002F938F939F93EF93FF93E091AD02F09148
:100DE000AE028081E091B302F091B40282FD1BC09B
:100DF00090818091B6028F5F8F732091B702821726
:100E000041F0E091B602F0E0E356FD4F958F8093FC
:100E1000B602FF91EF919F918F912F910F900FBE8E
:100E20000F901F9018958081F4CF1F920F920FB6EC
:100E30000F9211242F933F934F935F936F937F9360
:100E40008F939F93AF93BF93EF93FF938091B900DC
:100E5000887F803609F44AC0F0F5883209F4A7C0CB
:100E600018F5803109F49BC0B8F4882309F4F9C05F
:100E7000883009F494C0FF91EF91BF91AF919F9199
:100E80008F917F916F915F914F913F912F910F9033
:100E90000FBE0F901F901895883109F488C08032DA
:100EA00051F780933B0214C0803409F49DC040F494
:100EB0008033B9F38833F9F680933B0285ECB0C0F8
:100EC000803509F485C0883509F496C0883499F6D0
:100ED0000E943B06D0CF883909F48CC038F588379A
:100EE00029F050F4883611F0803729F683E080939A
:100EF0003C0210923A0257C0883809F47BC080390E
:100F000019F0803809F0B7CF80913A02803208F0AA
:100F100071C0E0913A0281E08E0F80933A02809195
:100F2000BB00F0E0E65EFD4F80833DC0803B39F0C2
:100F3000E0F4803A09F479C0883A09F09CCF84E063
:100F400080933C021092190210921802E091640200
:100F5000F091650209958091180281110FC081E01E
:100F6000809318021092F80109C0803C09F4A6CFC2
:100F7000883C09F4A3CF883B09F07DCFE0911902AA
:100F800081E08E0F80931902F0E0E850FE4F8081DF
:100F90008093BB00909119028091180229C0809122
:100FA00061028093BB0085EC8093BC0064CF90917C
:100FB000600280915F02981758F5E091600281E02D
:100FC0008E0F80936002F0E0E15CFD4F8081E9CFFD
:100FD000E091600281E08E0F809360028091BB00FF
:100FE000F0E0E15CFD4F80839091600280915F02B0
:100FF0009817C8F285E8D8CFE091600281E08E0FA3
:10100000809360028091BB00F0E0E15CFD4F808343
:1010100080913E0281115CCF81E080933D0284EAA1
:101020008093BC0010923C0226CF85EC8093BC00DC
:1010300010923C0280913A02803230F4E0913A0200
:10104000F0E0E65EFD4F108260913A0270E0E091C0
:101050006202F09163028AE192E0099510923A02ED
:101060000ACF10923B0234CFEDE9F2E013821282F4
:1010700088EE93E0A0E0B0E084839583A683B783F5
:101080002CE431E03183208325EC30E03587248760
:1010900024EC30E03787268720EC30E0318B208B42
:1010A00021EC30E0338B228B22EC30E0358B248B2B
:1010B00026EC30E0378B268B118E128E138E148E19
:1010C000EAE3F3E01382128284839583A683B783D5
:1010D0008EE591E091838083E6E4F3E0138212824F
:1010E00080E791E09183808311868EE3848380E1A1
:1010F000828782E083870895789484B5826084BD76
:1011000084B5816084BD85B5826085BD85B581600B
:1011100085BD80916E00816080936E001092810089
:101120008091810082608093810080918100816044
:101130008093810080918000816080938000809105
:10114000B10084608093B1008091B0008160809391
:10115000B00080917A00846080937A0080917A0058
:10116000826080937A0080917A00816080937A0017
:1011700080917A00806880937A001092C10010926A
:1011800069021092680210926702109266020E9431
:10119000CD0287E991E0909365028093640288E92B
:1011A00091E0909363028093620280E180934B030D
:1011B00080915103823018F098E190934B03809313
:1011C0004E038BE39DE00197F1F760914B03606262
:1011D00070E086E493E00E9492038BE496E401972A
:1011E000F1F760914B03606270E086E493E00E9447
:1011F000920383E592E00197F1F760914B036062FF
:1012000070E086E493E00E94920360914B03606279
:1012100070E086E493E00E94920384E080934C03A4
:101220006CE070E086E493E00E9492030E94B104B7
:10123000C2E0C0934D0366E070E086E493E00E9454
:10124000920362E070E086E493E00E9492038BE3F5
:101250009FE10197F1F78FE791E00E94FE056AE0B8
:1012600070E080E091E00E94CF0468EE73E080E0DF
:1012700090E00E9459010E94B1040E94E00582E0C2
:101280000E948C0083E00E948C0084E00E948C000D
:10129000E091AD02F091AE02C083E091A902F0911D
:1012A000AA021082E091AB02F091AC028FEC808335
:1012B0001092B502E091B102F091B20286E0808313
:1012C000E091AF02F091B002808180618083E09173
:1012D000AF02F091B002808188608083E091AF021C
:1012E000F091B002808180688083E091AF02F0913C
:1012F000B00280818F7D80830E948B017093850274
:1013000060938402C0E0D0E009E010E082E00E9437
:10131000DD007C01909383028093820280918102A0
:101320008E151F0451F00E948B0160937D02709313
:101330007E0280937F02909380020E948B018090B6
:101340007D0290907E02A0907F02B090800268198A
:1013500079098A099B09613571058105910508F4B0
:101360004AC080917C028E151F0409F444C081E0BC
:10137000E114F10409F480E080937C02EF28D9F1B4
:1013800080917A0290917B0201968A3091050CF04F
:1013900039C290937B0280937A0280917A02909175
:1013A0007B02FC01EE0FFF1FE85DFE4F20813181C3
:1013B0004091920250919302452B09F028C29093DC
:1013C00091028093900230937902209378020E94D8
:1013D000030680917802909179020E941D06809107
:1013E0007602909177020E941D0664E670E080E02C
:1013F00090E00E94590181E02091820230918302A5
:10140000232B09F480E08093810283E00E94DD00B9
:101410007C019093830280938202809175028E15E5
:101420001F0451F00E948B0160937102709372024D
:1014300080937302909374020E948B0180907102DA
:1014400090907202A0907302B090740268197909AA
:101450008A099B09613571058105910508F448C029
:10146000809170028E151F0409F442C081E0E114DE
:10147000F10409F480E080937002EF28C9F18091B3
:101480007A0290917B02019797FDCAC190937B02EB
:1014900080937A0280917A0290917B02FC01EE0F98
:1014A000FF1FE85DFE4F20813181409192025091F3
:1014B0009302452B09F0B9C1909391028093900259
:1014C00030937902209378020E940306809178027B
:1014D000909179020E941D06809176029091770288
:1014E0000E941D0664E670E080E090E00E945901D1
:1014F00081E02091820230918302232B09F480E065
:101500008093750284E00E94DD007C019093830249
:101510008093820280916F028E151F0451F00E9409
:101520008B0160936B0270936C0280936D029093B9
:101530006E020E948B0180906B0290906C02A090D2
:101540006D02B0906E02681979098A099B096135AC
:1015500071058105910508F441C080916A028E15DC
:101560001F04E1F1809192029091930221E0E11435
:10157000F10409F420E020936A02EF2879F1019642
:101580008330910514F082E090E097FF02C090E074
:1015900080E0909393028093920273E0E72EF12C07
:1015A00060E08CE00E947E0480E991E00E94FE05EC
:1015B0006AEF70E080E090E00E94590160E08CE00A
:1015C0000E947E048DEA91E00E94FE0541E0E41A4B
:1015D000F10831F760E080E00E947E0481E0209114
:1015E000820230918302232B09F480E080936F0202
:1015F0008091920290919302029709F05FC0A091AE
:101600009002B0919102AA0FBB1FA85DBE4F8D91B1
:101610009C911197E0918E02F0918F02EE0FFF1FC7
:10162000E85DFE4F208131812D933C93918380832F
:1016300080918C0290918D02019690938D028093FF
:101640008C02A8E2B1E0FD0190E080E030E020E013
:10165000419151912417350709F401962F5F3F4FAF
:101660002A303105A9F790938B0280938A0230E0EB
:1016700020E070E060E04D915D916417750749F0DE
:10168000F901EE0FFF1FEC5EFE4F718360832F5F49
:101690003F4F6F5F7F4F6A30710569F7681B790BA9
:1016A00084E191E00E94CF04109293021092920282
:1016B0000E94B1040E94E0050E94030680918A0204
:1016C00090918B020A9709F066C085E0E82EF12C14
:1016D0000E94B10482E991E00E94FE0568EE73E089
:1016E00080E090E00E9459010E94B1048BE991E0F2
:1016F0000E94FE0560918C0270918D0286E493E059
:101700000E94D60568EE73E080E090E00E945901E7
:101710000E94B10484EA91E00E94FE056091880273
:101720007091890286E493E00E94D6058AEA91E0EE
:101730000E94FE05609186027091870286E493E024
:101740000E94D6058EE891E00E94FE0568EE73E0E7
:1017500080E090E00E9459010E94B10451E0E51A36
:10176000F10809F0B5CF10928B0210928A028FE730
:1017700091E00E94FE056AE070E080E091E00E9446
:10178000CF0468EE73E080E090E00E9459010E946F
:10179000B1040E94E0050E948B01209184023091E7
:1017A0008502AB01421B530B9A01283E3340FCF0EB
:1017B00020918602309187022F5F3F4F309387023E
:1017C000209386022C33310571F4209188023091E8
:1017D00089022F5F3F4F3093890220938802109235
:1017E000870210928602709385026093840220978C
:1017F00009F48CCD0E940302882309F487CD0E944E
:10180000000084CD10927B0210927A02C6CD909394
:101810008F0280938E023093770220937602D7CD89
:1018200010937B0200937A0235CE90938F028093BF
:101830008E02309377022093760246CE8F929F924B
:10184000AF92BF92CF92DF92EF92FF92CF93DF934E
:10185000EC01688179818A819B816115710581051F
:10186000910521F464E279ED8BE597E02DE133EF0A
:1018700041E050E00E94C20C49015A019B01AC01B9
:10188000A7EAB1E40E94E10C6B017C01ACEEB4EF7D
:10189000A50194010E94EF0CC60ED71EE81EF91E8A
:1018A000F7FE06C081E0C81AD108E10880E8F80A0E
:1018B000C882D982EA82FB82C701B6019F77DF9195
:1018C000CF91FF90EF90DF90CF90BF90AF909F901F
:1018D0008F9008958F929F92AF92BF92CF92DF9296
:1018E000EF92FF9260913C0170913D0180913E0129
:1018F00090913F01611571058105910521F464E224
:1019000079ED8BE597E02DE133EF41E050E00E9467
:10191000C20C49015A019B01AC01A7EAB1E40E9443
:10192000E10C6B017C01ACEEB4EFA50194010E94C7
:10193000EF0CC60ED71EE81EF91EF7FE06C081E0AA
:10194000C81AD108E10880E8F80AC0923C01D09298
:101950003D01E0923E01F0923F01C701B6019F7741
:10196000FF90EF90DF90CF90BF90AF909F908F90BF
:10197000089560933C0170933D0180933E019093E4
:101980003F010895052E97FB1EF400940E94D90C88
:1019900057FD07D00E94F40C07FC03D04EF40C94C2
:1019A000D90C50954095309521953F4F4F4F5F4F43
:1019B000089590958095709561957F4F8F4F9F4FBB
:1019C00008950E94160DA59F900DB49F900DA49FA1
:1019D000800D911D11240895B7FF0C94E10C0E9415
:1019E000E10C821B930B0895A1E21A2EAA1BBB1BCC
:1019F000FD010DC0AA1FBB1FEE1FFF1FA217B307DB
:101A0000E407F50720F0A21BB30BE40BF50B661FF0
:101A1000771F881F991F1A9469F7609570958095B4
:101A200090959B01AC01BD01CF010895A29FB0012B
:101A3000B39FC001A39F700D811D1124911DB29F02
:101A4000700D811D1124911D0895EE0FFF1F05904B
:101A5000F491E02D0994F894FFCF000001000200FA
:101A600003000400050006000700080009000A0042
:101A70000A000A000A000A000A000A000A000A0016
:101A80000A00000001000200030004000500060037
:101A900007000800090001000000000040001400D9
:101AA00054000000000039029901C6018602F701C6
:101AB000D501E9010000000063033603CC040C03E8
:101AC0002F031C030D0300000000C4049901CC0483
:101AD000CB047B007D000D0A0053687566666C6957
:101AE0006E6720446967697473002A0041636572F8
:101AF000746F7521004A6F67616461733A005469BD
:0A1B00006D653A006D696E2000006B
:107E0000112484B714BE81FFF0D085E080938100F7
:107E100082E08093C00088E18093C10086E0809377
:107E2000C20080E18093C4008EE0C9D0259A86E02C
:107E300020E33CEF91E0309385002093840096BBD3
:107E4000B09BFECF1D9AA8958150A9F7CC24DD24C4
:107E500088248394B5E0AB2EA1E19A2EF3E0BF2EE7
:107E6000A2D0813461F49FD0082FAFD0023811F036
:107E7000013811F484E001C083E08DD089C08234E0
:107E800011F484E103C0853419F485E0A6D080C0E4
:107E9000853579F488D0E82EFF2485D0082F10E0AE
:107EA000102F00270E291F29000F111F8ED06801E7
:107EB0006FC0863521F484E090D080E0DECF843638
:107EC00009F040C070D06FD0082F6DD080E0C81688
:107ED00080E7D80618F4F601B7BEE895C0E0D1E017
:107EE00062D089930C17E1F7F0E0CF16F0E7DF06D8
:107EF00018F0F601B7BEE89568D007B600FCFDCFD4
:107F0000A601A0E0B1E02C9130E011968C91119780
:107F100090E0982F8827822B932B1296FA010C0160
:107F200087BEE89511244E5F5F4FF1E0A038BF0790
:107F300051F7F601A7BEE89507B600FCFDCF97BE46
:107F4000E89526C08437B1F42ED02DD0F82E2BD052
:107F50003CD0F601EF2C8F010F5F1F4F84911BD097
:107F6000EA94F801C1F70894C11CD11CFA94CF0C13
:107F7000D11C0EC0853739F428D08EE10CD085E9AC
:107F80000AD08FE07ACF813511F488E018D01DD067
:107F900080E101D065CF982F8091C00085FFFCCF94
:107FA0009093C60008958091C00087FFFCCF809118
:107FB000C00084FD01C0A8958091C6000895E0E648
:107FC000F0E098E1908380830895EDDF803219F02E
:107FD00088E0F5DFFFCF84E1DECF1F93182FE3DFCA
:107FE0001150E9F7F2DF1F91089580E0E8DFEE27F6
:047FF000FF270994CA
:027FFE00040479
:00000001FF
